{
  "_format": "hh-sol-artifact-1",
  "contractName": "Voting",
  "sourceName": "contracts/Voting.sol",
  "abi": [
    {
      "inputs": [],
      "stateMutability": "nonpayable",
      "type": "constructor"
    },
    {
      "anonymous": false,
      "inputs": [
        {
          "indexed": false,
          "internalType": "string",
          "name": "candidate",
          "type": "string"
        }
      ],
      "name": "Voted",
      "type": "event"
    },
    {
      "anonymous": false,
      "inputs": [],
      "name": "VotingEnded",
      "type": "event"
    },
    {
      "anonymous": false,
      "inputs": [
        {
          "indexed": false,
          "internalType": "string",
          "name": "candidate1",
          "type": "string"
        },
        {
          "indexed": false,
          "internalType": "string",
          "name": "candidate2",
          "type": "string"
        }
      ],
      "name": "VotingStarted",
      "type": "event"
    },
    {
      "inputs": [],
      "name": "candidate1",
      "outputs": [
        {
          "internalType": "string",
          "name": "",
          "type": "string"
        }
      ],
      "stateMutability": "view",
      "type": "function"
    },
    {
      "inputs": [],
      "name": "candidate2",
      "outputs": [
        {
          "internalType": "string",
          "name": "",
          "type": "string"
        }
      ],
      "stateMutability": "view",
      "type": "function"
    },
    {
      "inputs": [],
      "name": "declareWinner",
      "outputs": [
        {
          "internalType": "string",
          "name": "",
          "type": "string"
        }
      ],
      "stateMutability": "view",
      "type": "function"
    },
    {
      "inputs": [],
      "name": "endVoting",
      "outputs": [],
      "stateMutability": "nonpayable",
      "type": "function"
    },
    {
      "inputs": [
        {
          "internalType": "string",
          "name": "c1",
          "type": "string"
        },
        {
          "internalType": "string",
          "name": "c2",
          "type": "string"
        }
      ],
      "name": "start_voting",
      "outputs": [],
      "stateMutability": "nonpayable",
      "type": "function"
    },
    {
      "inputs": [
        {
          "internalType": "string",
          "name": "candidate",
          "type": "string"
        }
      ],
      "name": "vote",
      "outputs": [],
      "stateMutability": "nonpayable",
      "type": "function"
    },
    {
      "inputs": [],
      "name": "votesCandidate1",
      "outputs": [
        {
          "internalType": "uint256",
          "name": "",
          "type": "uint256"
        }
      ],
      "stateMutability": "view",
      "type": "function"
    },
    {
      "inputs": [],
      "name": "votesCandidate2",
      "outputs": [
        {
          "internalType": "uint256",
          "name": "",
          "type": "uint256"
        }
      ],
      "stateMutability": "view",
      "type": "function"
    },
    {
      "inputs": [],
      "name": "votingStarted",
      "outputs": [
        {
          "internalType": "bool",
          "name": "",
          "type": "bool"
        }
      ],
      "stateMutability": "view",
      "type": "function"
    }
  ],
  "bytecode": "0x608060405260008060006101000a81548160ff0219169083151502179055506000600355600060045534801561003457600080fd5b506111e8806100446000396000f3fe608060405234801561001057600080fd5b50600436106100935760003560e01c80635c18ae95116100665780635c18ae951461011057806383d948b71461012c578063a54532ee1461014a578063c3403ddf14610168578063fc36e15b1461017257610093565b806301243fce1461009857806314034bd2146100b65780634b763216146100d45780635b57014c146100f2575b600080fd5b6100a061018e565b6040516100ad9190610930565b60405180910390f35b6100be61021c565b6040516100cb9190610930565b60405180910390f35b6100dc6103ab565b6040516100e9919061096b565b60405180910390f35b6100fa6103b1565b6040516101079190610930565b60405180910390f35b61012a60048036038101906101259190610acf565b61043f565b005b610134610514565b6040516101419190610b62565b60405180910390f35b610152610525565b60405161015f919061096b565b60405180910390f35b61017061052b565b005b61018c60048036038101906101879190610b7d565b6105c0565b005b6001805461019b90610bf5565b80601f01602080910402602001604051908101604052809291908181526020018280546101c790610bf5565b80156102145780601f106101e957610100808354040283529160200191610214565b820191906000526020600020905b8154815290600101906020018083116101f757829003601f168201915b505050505081565b60606102296003546107b7565b6102346004546107b7565b60045460035411156102d2576001805461024d90610bf5565b80601f016020809104026020016040519081016040528092919081815260200182805461027990610bf5565b80156102c65780601f1061029b576101008083540402835291602001916102c6565b820191906000526020600020905b8154815290600101906020018083116102a957829003601f168201915b505050505090506103a8565b6004546003540361031a576040518060400160405280600481526020017f546965210000000000000000000000000000000000000000000000000000000081525090506103a8565b6002805461032790610bf5565b80601f016020809104026020016040519081016040528092919081815260200182805461035390610bf5565b80156103a05780601f10610375576101008083540402835291602001916103a0565b820191906000526020600020905b81548152906001019060200180831161038357829003601f168201915b505050505090505b90565b60035481565b600280546103be90610bf5565b80601f01602080910402602001604051908101604052809291908181526020018280546103ea90610bf5565b80156104375780601f1061040c57610100808354040283529160200191610437565b820191906000526020600020905b81548152906001019060200180831161041a57829003601f168201915b505050505081565b60008054906101000a900460ff161561048d576040517f08c379a000000000000000000000000000000000000000000000000000000000815260040161048490610c72565b60405180910390fd5b60016000806101000a81548160ff02191690831515021790555081600190816104b69190610e3e565b5080600290816104c69190610e3e565b50600060038190555060006004819055507fa6bcc6a70689a123fa29294b5072749bd2b24739df8633726f925aea9060d5228282604051610508929190610f10565b60405180910390a15050565b60008054906101000a900460ff1681565b60045481565b60008054906101000a900460ff16610578576040517f08c379a000000000000000000000000000000000000000000000000000000000815260040161056f90610f93565b60405180910390fd5b60008060006101000a81548160ff0219169083151502179055507f7a19ed057db79e3c2fa0b97a54b43bef4fce74b31bb6c01af514b9a18a7f70ab60405160405180910390a1565b60016040516020016105d29190611041565b60405160208183030381529060405280519060200120816040516020016105f99190611089565b604051602081830303815290604052805190602001201480610667575060026040516020016106289190611041565b604051602081830303815290604052805190602001208160405160200161064f9190611089565b60405160208183030381529060405280519060200120145b6106a6576040517f08c379a000000000000000000000000000000000000000000000000000000000815260040161069d906110ec565b60405180910390fd5b60008054906101000a900460ff166106f3576040517f08c379a00000000000000000000000000000000000000000000000000000000081526004016106ea90610f93565b60405180910390fd5b60016040516020016107059190611041565b604051602081830303815290604052805190602001208160405160200161072c9190611089565b6040516020818303038152906040528051906020012003610764576003600081548092919061075a9061113b565b919050555061077d565b600460008154809291906107779061113b565b91905055505b7f38cb362e55241cdbab8a2f1105fb99fc7be1f0d6a865f97e688d6d5df0a03614816040516107ac9190610930565b60405180910390a150565b61084d816040516024016107cb919061096b565b6040516020818303038152906040527ff82c50f1000000000000000000000000000000000000000000000000000000007bffffffffffffffffffffffffffffffffffffffffffffffffffffffff19166020820180517bffffffffffffffffffffffffffffffffffffffffffffffffffffffff8381831617835250505050610850565b50565b6108678161085f61086a61088b565b63ffffffff16565b50565b60006a636f6e736f6c652e6c6f679050600080835160208501845afa505050565b610896819050919050565b61089e611183565b565b600081519050919050565b600082825260208201905092915050565b60005b838110156108da5780820151818401526020810190506108bf565b60008484015250505050565b6000601f19601f8301169050919050565b6000610902826108a0565b61090c81856108ab565b935061091c8185602086016108bc565b610925816108e6565b840191505092915050565b6000602082019050818103600083015261094a81846108f7565b905092915050565b6000819050919050565b61096581610952565b82525050565b6000602082019050610980600083018461095c565b92915050565b6000604051905090565b600080fd5b600080fd5b600080fd5b600080fd5b7f4e487b7100000000000000000000000000000000000000000000000000000000600052604160045260246000fd5b6109dc826108e6565b810181811067ffffffffffffffff821117156109fb576109fa6109a4565b5b80604052505050565b6000610a0e610986565b9050610a1a82826109d3565b919050565b600067ffffffffffffffff821115610a3a57610a396109a4565b5b610a43826108e6565b9050602081019050919050565b82818337600083830152505050565b6000610a72610a6d84610a1f565b610a04565b905082815260208101848484011115610a8e57610a8d61099f565b5b610a99848285610a50565b509392505050565b600082601f830112610ab657610ab561099a565b5b8135610ac6848260208601610a5f565b91505092915050565b60008060408385031215610ae657610ae5610990565b5b600083013567ffffffffffffffff811115610b0457610b03610995565b5b610b1085828601610aa1565b925050602083013567ffffffffffffffff811115610b3157610b30610995565b5b610b3d85828601610aa1565b9150509250929050565b60008115159050919050565b610b5c81610b47565b82525050565b6000602082019050610b776000830184610b53565b92915050565b600060208284031215610b9357610b92610990565b5b600082013567ffffffffffffffff811115610bb157610bb0610995565b5b610bbd84828501610aa1565b91505092915050565b7f4e487b7100000000000000000000000000000000000000000000000000000000600052602260045260246000fd5b60006002820490506001821680610c0d57607f821691505b602082108103610c2057610c1f610bc6565b5b50919050565b7f566f74696e672068617320616c72656164792073746172746564000000000000600082015250565b6000610c5c601a836108ab565b9150610c6782610c26565b602082019050919050565b60006020820190508181036000830152610c8b81610c4f565b9050919050565b60008190508160005260206000209050919050565b60006020601f8301049050919050565b600082821b905092915050565b600060088302610cf47fffffffffffffffffffffffffffffffffffffffffffffffffffffffffffffffff82610cb7565b610cfe8683610cb7565b95508019841693508086168417925050509392505050565b6000819050919050565b6000610d3b610d36610d3184610952565b610d16565b610952565b9050919050565b6000819050919050565b610d5583610d20565b610d69610d6182610d42565b848454610cc4565b825550505050565b600090565b610d7e610d71565b610d89818484610d4c565b505050565b5b81811015610dad57610da2600082610d76565b600181019050610d8f565b5050565b601f821115610df257610dc381610c92565b610dcc84610ca7565b81016020851015610ddb578190505b610def610de785610ca7565b830182610d8e565b50505b505050565b600082821c905092915050565b6000610e1560001984600802610df7565b1980831691505092915050565b6000610e2e8383610e04565b9150826002028217905092915050565b610e47826108a0565b67ffffffffffffffff811115610e6057610e5f6109a4565b5b610e6a8254610bf5565b610e75828285610db1565b600060209050601f831160018114610ea85760008415610e96578287015190505b610ea08582610e22565b865550610f08565b601f198416610eb686610c92565b60005b82811015610ede57848901518255600182019150602085019450602081019050610eb9565b86831015610efb5784890151610ef7601f891682610e04565b8355505b6001600288020188555050505b505050505050565b60006040820190508181036000830152610f2a81856108f7565b90508181036020830152610f3e81846108f7565b90509392505050565b7f566f74696e6720686173206e6f74207374617274656400000000000000000000600082015250565b6000610f7d6016836108ab565b9150610f8882610f47565b602082019050919050565b60006020820190508181036000830152610fac81610f70565b9050919050565b600081905092915050565b60008154610fcb81610bf5565b610fd58186610fb3565b94506001821660008114610ff0576001811461100557611038565b60ff1983168652811515820286019350611038565b61100e85610c92565b60005b8381101561103057815481890152600182019150602081019050611011565b838801955050505b50505092915050565b600061104d8284610fbe565b915081905092915050565b6000611063826108a0565b61106d8185610fb3565b935061107d8185602086016108bc565b80840191505092915050565b60006110958284611058565b915081905092915050565b7f496e76616c69642063616e646964617465000000000000000000000000000000600082015250565b60006110d66011836108ab565b91506110e1826110a0565b602082019050919050565b60006020820190508181036000830152611105816110c9565b9050919050565b7f4e487b7100000000000000000000000000000000000000000000000000000000600052601160045260246000fd5b600061114682610952565b91507fffffffffffffffffffffffffffffffffffffffffffffffffffffffffffffffff82036111785761117761110c565b5b600182019050919050565b7f4e487b7100000000000000000000000000000000000000000000000000000000600052605160045260246000fdfea2646970667358221220d904f8bf0bbeb84efcf29bb11dde8c7cc55ed2aaf96eafd12345fe3c816dac5264736f6c63430008120033",
  "linkReferences": {},
  "deployedLinkReferences": {}
}